:020000040000FA
:060000000A128A110C280F
:10000800FE00030EF8000A08F9000A128A15AE2944
:100018000A128A110F28FA01FB01FC01FD01831362
:10002800A0308400C2300A168A11C0240A128A112C
:1000380083010A128A15E82E831203133E08C100B1
:100048003F08C2004008C3000310420D430DC4001E
:100058004408C9004908031D322833283A280030CB
:10006800BB000030BC000030BD00E1283B08C100E7
:100078003C08C2003D08C3000310420D430DC400F4
:100088004408CA004A08031D4A284B285228003051
:10009800BB000030BC000030BD00E1280030C600C5
:1000A8000030C7000030C80089304A07C100410845
:1000B800C9023E08C1003F08C2004008C300103012
:1000C8000310C30CC20CC10CFF3E031D6428410879
:1000D800C4004408CA003B08C1003C08C2003D08EF
:1000E800C30010300310C30CC20CC10CFF3E031D2B
:1000F80076284108C4004408CA068030C100410877
:10010800CA05BF17FF30BE05FF30BF050030C00568
:10011800BC17FF30BB05FF30BC050030BD051830EB
:10012800C1004108C50001300310C60DC70DC80D38
:10013800FF3E031D98283D084002031DA9283C08DE
:100148003F02031DA9283B083E02031CAC28AD282A
:10015800B8283B08BE023C08031C3C0FBF023D0800
:10016800031C3D0AC002461401300310BE0DBF0D2A
:10017800C00DFF3E031DB9280130C502031DC52867
:10018800C62897284608A0004708A1004808A200EA
:100198004908C1004108A3004A08C2004208A40057
:1001A8000A128A15A4200A128A118312031320083E
:1001B800BB002108BC002208BD00080083160313F9
:1001C800260883120313DB00831603132708831200
:1001D8000313DC0083160313280883120313DD00BE
:1001E8000A128A1522210A128A11831203135C0843
:1001F800EA005B08E9000800FF1B0A2983137F183F
:1002080083170008840A0319FF0A08007F087F394A
:100218008A000408840A0319FF0A820001340034A2
:100228000A34003464340034E83403341034273496
:100238000D340A344234693465346E3476346534A6
:100248006E34693464346F347334203461346C34FC
:100258002034733469347334743465346D346134E0
:10026800203464346534203443346F346E34743449
:1002780072346F346C342034793420344D346F3414
:100288006E34693474346F34723469347A34613456
:10029800633469346F346E342034643465346C34B8
:1002A800203448346F3472346E346F340D340A3469
:1002B80000340D340A342D342D342D342D342D349E
:1002C8002D343E34203443346F346E3473346934FF
:1002D80067346E34613420346F34203454346534D8
:1002E8006D347034653472346134743475347234F6
:1002F800613420344F3462346A3465347434693478
:1003080076346F343A34203425346434BA340D34B6
:100318000A3400342D342D342D3445347334743478
:10032800613464346F342034413470346134673458
:1003380061346E3464346F34203465346C34203462
:1003480048346F3472346E346F342E342E342E3475
:100358002D342D342D340A340034563465346C343D
:100368006F346334693464346134643420346434FD
:1003780065346C342034763465346E3474346934BE
:100388006C34613464346F3472342034253464340A
:10039800253425340D340A3400342034543465347B
:1003A8006D34703465347234613474347534723435
:1003B800613420346F3462346A3465347434693497
:1003C80076346F343A3420342534643420340D3490
:1003D8000A340034443465346C346134793420345C
:1003E80069346E3469346334693461346C3420346C
:1003F80064346534203433342034733465346734DA
:1004080075346E34643473340A34003454346534C7
:100418006D347034653472346134743475347234C4
:100428006134203469346E34743465347234693418
:100438006F347234203425346434BA3420340D34A3
:100448000A340034543465346D347034653472348D
:1004580061347434753472346134203465347834DA
:1004680074346534723469346F347234203425340A
:100478006434BA3420340D340A34003449346E34C8
:10048800743465346E347334693464346134643478
:1004980020346C3475346D3469346E346F3473348D
:1004A800613420342534643420346C346D340D3494
:1004B8000A340034543465346D347034653472341D
:1004C800613474347534723461342034453478348A
:1004D80074346534723469346F3472343A34203485
:1004E8002534643420340D340A3400346C346534D3
:1004F80063347434753472346134203461346E3446
:1005080061346C346F3467346934633461343A3439
:1005180020342534643420340D340A3400342D3426
:100528002D342D3450346F34743465346E34633460
:1005380069346F346D346534743472346F342D34E7
:100548002D342D340A3400344C3475346D34693408
:100558006E346F34733469346434613464343A34D7
:1005680020342534643420340D340A3400344134C2
:1005780070346134673461346E3464346F342034D9
:1005880048346F3472346E346F342E342E342E3433
:100598000034483475346D346534643461346434FB
:1005A8002034253464342534253420340D340A3479
:1005B8000034483475346D346534643461346434DB
:1005C8003A3420342534643420340D340A34003469
:1005D8002D342D342D34533465347434203455344B
:1005E80050342D342D342D340A3400340D340A346B
:1005F8004434613474346F3473343A340D340A3407
:1006080000340A168A110A250A128A118312031362
:10061800210883160313AF008312031320088316DF
:100628000313AE000A168A114B260A128A11831286
:100638000313300883160313AD00831203132F0826
:1006480083160313AC002E082C02C0002F08031CCD
:100658002F0A2D02C100CD3083120313CB004C307A
:10066800CC003D30CD00831603132D0883120313ED
:10067800A900831603132C0883120313A8000A1673
:100688008A11F6250A128A11831203132808CE004C
:100698002908CF002A08D0000A128A151D230A1239
:1006A8008A11831203134B0883160313A3008312C2
:1006B80003134C0883160313A400831203134D0875
:1006C80083160313A500003083120313AE004030D5
:1006D800AF004030B0000A168A114C250A128A1160
:1006E800831203132008B1002108B2002208B300C6
:1006F8000A168A1182260A128A110318842B852B5E
:10070800922BBB3083120313EB008230EC000A12E9
:100718008A11E8250A128A116300B12C8316031383
:100728004108803AFF0080307F02031D9D2B013075
:100738004002031CA02BA12BB72B003083120313FC
:10074800A000A1000A168A11F2240A128A110130A7
:1007580083120313A0000030A1000A168A11E624B0
:100768000A128A11CC2B013083120313A000003027
:10077800A1000A168A11F2240A128A110030831283
:100788000313A000A1000A168A11E6240A128A118E
:1007980083160313C11FD12BD22BD72BC009C10934
:1007A800C00A0319C10A230883120313AE00831673
:1007B8000313240883120313AF00831603132508B9
:1007C80083120313B0008316031341088312031323
:1007D800A90083160313400883120313A8000A16FE
:1007E8008A11F6250A128A11831203132808B10008
:1007F8002908B2002A08B3000A168A1182260A12AA
:100808008A110318082C092C342C00308316031382
:10081800A6009630A7004230A800831603132608C6
:1008280083120313DB0083160313270883120313B1
:10083800DC0083160313280883120313DD000A1251
:100848008A1522210A128A11831203135C08EA000E
:100858005B08E9000A128A1500200A128A11B12CD5
:1008680083160313230883120313BB008316031391
:10087800240883120313BC0083160313250883126C
:100888000313BD0083160313410883120313A10049
:1008980083160313400883120313A0004B30A200F1
:1008A8000030A3000A168A11CF250A128A11831272
:1008B80003132108A9002008A8000A168A11F625A2
:1008C8000A128A11831203132808BE002908BF00E0
:1008D8002A08C0000A128A1120200A128A118312DB
:1008E80003133B0883160313A600831203133C0863
:1008F80083160313A700831203133D0883160313FB
:10090800A800003083120313AE00C830AF00413096
:10091800B00083160313260883120313B10083164D
:100928000313270883120313B2008316031328083E
:1009380083120313B3000A168A1182260A128A1137
:10094800031CA72CA82C112C003083160313A60017
:10095800C830A7004130A800112C080083120313E7
:100968002E08B4002F08B5003008B6000310350D66
:10097800360DB7003708BA003108B4003208B500A0
:100988003308B6000310350D360DB7003708B90027
:100998003A080319D02CD12CE12C39083A02031853
:1009A800D62CD72CE82C3908B4003A08B4021930F0
:1009B8003402031CE02CE12CE82C3108AE0032088C
:1009C800AF003308B000E72D39080319EC2CED2CE3
:1009D800FD2C3A0839020318F22CF32CFE2C3A08A5
:1009E800B4003908B40219303402031CFC2CFD2C65
:1009F800FE2CE72D0630B4003408B800B01F052DD2
:100A0800062D072DB817B31F0A2D0B2D0C2D3817DF
:100A1800AF17FF30AE05FF30AF050030B005B21795
:100A2800FF30B105FF30B2050030B30539083A028E
:100A380003181F2D202D4C2D01300310B10DB20DC0
:100A4800B30DFF3E031D212D0130B90239083A06C6
:100A580003192F2D302D452D0130B80238080739DC
:100A6800031D372D382D202D452D01300310B00CD6
:100A7800AF0CAE0CFF3E031D3A2D0130B400340814
:100A8800BA073A083906031D4A2D4B2D392D7D2DFD
:100A98003A0839020318512D522D7D2D01300310CB
:100AA800AE0DAF0DB00DFF3E031D532D0130BA0240
:100AB80039083A060319612D622D772D0130B802E5
:100AC80038080739031D692D6A2D522D772D0130FD
:100AD8000310B30CB20CB10CFF3E031D6C2D01309A
:100AE800B4003408B9073A083906031D7C2D7D2D5A
:100AF8006B2DB81F802D812D912DFF30AE06FF3054
:100B0800AF06FF30B0060130AE07003003180130E1
:100B1800AF07003003180130B007381F942D952D0A
:100B2800A52DFF30B106FF30B206FF30B306013005
:100B3800B107003003180130B20700300318013044
:100B4800B307B8012E08B1072F08031103182F0A9D
:100B58000319AF2DB207300803110318300A03191F
:100B6800B62DB307B31FB92DBA2DCC2DFF30B10662
:100B7800FF30B206FF30B3060130B107003003186A
:100B88000130B207003003180130B307B801B80AC2
:100B98003108A0003208A1003308A2003A08B400C6
:100BA8003408A3003808B5003508A4000A128A15CD
:100BB800A4200A128A11831203132008AE00210808
:100BC800AF002208B00008006D3083160313C2007E
:100BD8004208C500E92E25304A060319F42DF52DE3
:100BE800FC2D4A080A168A11D1240A128A11E92E04
:100BF800C601052E4A080A168A11D1240A128A113A
:100C0800E92E831203136C0883160313C30083129F
:100C180003136B0883160313C20083120313EB0A32
:100C28000319EC0A83160313430883120313FF0006
:100C38008316031342088400831203130A128A11CD
:100C480000210A128A1183160313CA00003A0319F5
:100C5800152F643A0319342E0D3A0319342EFE2D3C
:100C68004508840083130008C800840A0008C900E6
:100C78000230C2004208C507C91F432E442E4D2E1C
:100C88000330C2004208C604C809C909C80A0319C2
:100C9800C90ACA01CA0A4A08C2004207123E8400A9
:100CA80081300318013E83120313FF000A128A11D0
:100CB80000210A128A1183160313C3008312031337
:100CC8000A128A1100210A128A1183160313C4001A
:100CD80044084902031D722E430848020318752E62
:100CE800762E772E812E0130C2004208CA070530C1
:100CF8004A06031D802E812E4F2E460803390319FC
:100D0800862E872E8D2E2D300A168A11D1240A128E
:100D18008A11831603134A08C2004208C700DE2E50
:100D28000A3083120313A8000030A90083160313A6
:100D38004708C2004207123E840081300318013E72
:100D480083120313FF000A128A1100210A128A1162
:100D5800A0000A128A1100210A128A11A100831622
:100D68000313490883120313A300831603134808C7
:100D780083120313A2000A168A11F8260A128A118E
:100D8800831203132108AB002008AA000A168A114F
:100D9800BC260A128A11831203132808303E8316D0
:100DA8000313C3004308CA004A080A168A11D1244B
:100DB8000A128A11FF3083160313C2004208C707BC
:100DC800470A031DE82EE92E942E831203136C089C
:100DD80083160313C300831203136B0883160313CC
:100DE800C20083120313EB0A0319EC0A83160313D8
:100DF800430883120313FF00831603134208840079
:100E0800831203130A128A1100210A128A11831607
:100E18000313C4004408CA004A08031D142F152FE1
:100E2800EF2D080083160313CD01CE01831203139F
:100E38001F08C33934389F009F14831603133008E2
:100E480031040319282F292F212FB001B101831252
:100E580003131E0883160313CB00CC014B08CC00E8
:100E6800CB014B08CF004C08D0001E08CB00CC01AA
:100E78004B08CF070318D00A4C08D007003083125C
:100E88000313BB008030BC004430BD00831603133D
:100E9800500883120313A100831603134F0883120B
:100EA8000313A0000530A2000030A3000A168A111F
:100EB800CF250A128A11831203132108A9002008DA
:100EC800A8000A168A11F6250A128A11831203133A
:100ED8002808BE002908BF002A08C0000A128A1183
:100EE80020200A128A11831203133B088316031366
:100EF800D100831203133C0883160313D200831214
:100F080003133D0883160313D3005108A9005208A0
:100F1800AA005308AB00510883120313CE008316AE
:100F28000313520883120313CF00831603135308C5
:100F380083120313D0000030CB007030CC00423055
:100F4800CD000A128A151D230A128A11831203136F
:100F58004B08BE004C08BF004D08C0000030BB0065
:100F68004030BC004030BD000A128A1120200A120D
:100F78008A11831203133B08DB003C08DC003D08A0
:100F8800DD000A128A1522210A128A11831203131C
:100F98005C0883160313CE00831203135B088316C1
:100FA8000313CD004D083407B4004E0803184E0A49
:100FB8003507B5000130B2070318B30A0030B3078C
:100FC800D13083120313EB008130EC000A168A112A
:100FD8004B260A128A11831203133008EE002F08D9
:0E0FE800ED000A128A11E8250A128A1108008B
:10100000643083120313A6000030A7008316031375
:10101000120883120313EB00EC016B08A0006C08AC
:10102000A1006A08A3006908A2000A168A11CF2548
:101030000A128A15831203132108A9002008A800A8
:101040000A168A1197270A128A1583120313260893
:1010500095000800FA3083120313EB008230EC0095
:101060000A128A11E8250A128A150A30831203131C
:10107000EB008230EC000A168A110A250A128A1542
:10108000831203132108EE002008ED000A128A11D2
:10109000E8250A128A15263083120313EB008230EA
:1010A000EC000A168A1131250A128A1583120313DD
:1010B0002108EE002008ED000A128A11E8250A1224
:1010C0008A15CD3083120313EB008230EC000A1630
:1010D0008A1117250A128A15831203132108EE00BC
:1010E0002008ED000A128A11E8250A128A154230FA
:1010F00083120313EB008230EC000A168A112425B8
:101100000A128A15831203132108EE002008ED004D
:101110000A128A11E8250A128A15B13083120313C4
:10112000EB008130EC000A128A11E2200A128A15C3
:10113000831203136A08EE006908ED000A128A118F
:10114000E8250A128A1508008312031323080319DD
:10115000AA28AB28B228220821042004031DB128A4
:10116000B228C5280030A0000030A1000030A20045
:1011700021290130A5002508A30701300310A20C86
:10118000A10CA00CFF3E031DBE28FE302205031D4E
:10119000CA28CB28B928E2280130A5002508A307D2
:1011A0000130A007003003180130A10700300318F8
:1011B0000130A20701300310A20CA10CA00CFF3ECD
:1011C000031DDB28FF302205031DE728E828CC2873
:1011D000F3280130A30201300310A00DA10DA20DD0
:1011E000FF3E031DEC28A11BF628F728FD2802303E
:1011F00023020318FC28FD28E928231800290129C7
:101200000729FF30A0057F30A105FF30A20503109C
:10121000A30C2308A500A601A70110300310A50DFB
:10122000A60DA70DFF3E031D0E292508A0042608C4
:10123000A1042708A204240803191F292029212911
:10124000A2170800831203135B08DF005C08E000AC
:101250005D08E1000310600D610DE2006208E80026
:101260006808031D342935293E290030DE0000308E
:10127000DD000030DC000030DB00AD295B08DF0062
:101280005C08E0005D08E10017300310E10CE00CA1
:10129000DF0CFF3E031D45295F08E2006208E30002
:1012A000DC17FF30DB05FF30DC050030DD055B08B7
:1012B000E4005C08E5005D08E600E7018E30E80226
:1012C000E81F632964297E296808803A8F3E031845
:1012D0006A296B296C29352901300310E70CE60CCB
:1012E000E50CE40CFF3E031D6D290130DF005F08B3
:1012F000E807031D7C297D296C299529183068028F
:10130000031C83298429902935290130DF0003102B
:10131000E40DE50DE60DE70DDF0B87290130E8024E
:101320006808031D942995298529630803199929BB
:101330009A29A529E409E509E609E709E40A031958
:10134000E50A0319E60A0319E70A6708DE006608DA
:10135000DD006508DC006408DB0008000B1DB12916
:10136000B229262A3D30831203138100F5307A0614
:10137000031DBE297B03031DBE29BF29C3290130DC
:10138000FA000030FB001930F0000030F1007B085B
:10139000F3007A08F2000A168A113E270A128A150B
:1013A00070087104031DD529D6291D2A7A087B04EB
:1013B0000319DB29DC291D2A013083160313B00031
:1013C0000030B1008B12BF0164307A067B04031930
:1013D000EA29EB290D2AC8307A067B040319F12982
:1013E000F2290D2A2C307A06031DFB297B030319F1
:1013F000FA29FB290D2A90307A06031D042A7B0363
:101400000319032A042A0D2AF4307A06031D0C2A34
:101410007B03031D0C2A0D2A352ABE01BE0AF430B7
:101420007A06031D172A7B03031D172A182A252A6B
:101430000230F7007708BE00352A0130FA0703189A
:10144000FB0A0030FB070B11352A352A83120313E0
:101450000C1F2B2A2C2A352A013083160313B000C7
:101460000030B100831203130C1379088A00780E40
:101470008300FE0E7E0E0900831203131F08C3397A
:1014800024389F009F148316031330083104031976
:101490004A2A4B2A432AB001B101831203131E08C2
:1014A000E900EA016908EA00E90169088316031303
:1014B000C800831203136A0883160313C9001E08A9
:1014C00083120313E900EA01690883160313C807AE
:1014D0000318C90A831203136A0883160313C90782
:1014E000003083120313CB007030CC004230CD00AB
:1014F0000030BB008030BC004430BD0083160313B5
:10150000490883120313A1008316031348088312AA
:101510000313A0000530A2000030A3000A168A11B0
:10152000CF250A128A15831203132108A900200867
:10153000A8000A168A11F6250A128A1583120313C7
:101540002808BE002908BF002A08C0000A128A1114
:1015500020200A128A15831203133B08CE003C0890
:10156000CF003D08D0000A128A151D230A128A15E1
:10157000831203134B0883160313C500831203134E
:101580004C0883160313C600831203134D088316F9
:101590000313C700003083120313BB007030BC007C
:1015A0004030BD0083160313450883120313BE00A9
:1015B00083160313460883120313BF008316031315
:1015C000470883120313C0000A128A1120200A124E
:1015D0008A15831203133B0883160313C200831278
:1015E00003133C0883160313C300831203133D083F
:1015F00083160313C400420883120313DB0083160F
:101600000313430883120313DC00831603134408F7
:1016100083120313DD000A128A1522210A128A1589
:10162000831203135C0883160313BD008312031394
:101630005B0883160313BC000800831203134B08D6
:10164000D1004C08D2004D08D3000310520D530DA9
:10165000D4005408D5005508031D2F2B302B372BF1
:101660000030CB000030CC000030CD00012C4E0803
:10167000D1004F08D2005008D3000310520D530D73
:10168000D4005408DA005A08031D472B482B4F2B6F
:101690000030CB000030CC000030CD00012C5A08C7
:1016A0007B3ED1005108D5074B08D1004C08D20031
:1016B0004D08D30010300310D30CD20CD10CFF3ED8
:1016C000031D5B2B5108D4005408DA004E08D100EA
:1016D0004F08D2005008D30010300310D30CD20CA6
:1016E000D10CFF3E031D6D2B5108D4005408DA06BF
:1016F0008030D1005108DA05CC17CF17FF30CE0566
:10170000FF30CF050030D0050030D6000030D700C4
:101710000030D8000730D1005108D9004B1C912B64
:10172000922BA22B4E08D6074F08031103184F0A1D
:1017300003199B2BD707500803110318500A0319EC
:10174000A22BD80701300310CD0CCC0CCB0CFF3EE4
:10175000031DA32B01300310CE0DCF0DD00DFF3E86
:10176000031DAB2B0130D902031DB72BB82B8E2BD9
:101770000930D1005108D9004B1CBF2BC02BD02BF6
:101780004E08D6074F08031103184F0A0319C92B37
:10179000D707500803110318500A0319D02BD80794
:1017A00001300310CD0CCC0CCB0CFF3E031DD12B14
:1017B00001300310D80CD70CD60CFF3E031DD92BDB
:1017C0000130D902031DE52BE62BBC2B5608A000E7
:1017D0005708A1005808A2005508D1005108A300DD
:1017E0005A08D2005208A4000A128A15A4200A122C
:1017F0008A15831203132008CB002108CC0022088D
:10180000CD000800831203131F08C33928389F0036
:101810009F1483160313300831040319102C112C64
:10182000092CB001B101831203131E0883160313A0
:10183000CB00CC014B08CC00CB014B08D3004C08AB
:10184000D4001E08CB00CC014B08D3070318D40AE0
:101850004C08D407753083120313AE005330AF0029
:10186000BF30B0000030BB008030BC004430BD0051
:1018700083160313540883120313A1008316031362
:10188000530883120313A0000530A2000030A30008
:101890000A168A11CF250A128A158312031321080A
:1018A000A9002008A8000A168A11F6250A128A152E
:1018B000831203132808BE002908BF002A08C000AD
:1018C0000A128A1120200A128A15831203133B0878
:1018D000B1003C08B2003D08B3000A128A11B224DC
:1018E0000A128A15831203132E0883160313D000DD
:1018F000831203132F0883160313D10083120313DB
:10190000300883160313D200063083120313BB0082
:101910000130BC003D30BD00831603135008831214
:101920000313BE0083160313510883120313BF0071
:1019300083160313520883120313C0000A128A117C
:1019400020200A128A15831203133B0883160313FF
:10195000CD00831203133C0883160313CE008312B9
:1019600003133D0883160313CF004D08831203139E
:10197000DB00831603134E0883120313DC00831667
:1019800003134F0883120313DD000A128A15222164
:101990000A128A15831203135C0883160313B90015
:1019A000831203135B0883160313B800DD30831220
:1019B0000313EB008230EC00831603133908831203
:1019C0000313EE0083160313380883120313ED008C
:1019D0000A128A11E8250A128A15080083120313D5
:1019E0001F08C33930389F009F1483160313300833
:1019F00031040319FC2CFD2CF52CB001B10183122C
:101A000003131E0883160313CB00CC014B08CC0034
:101A1000CB014B08D3004C08D4001E08CB00CC01EE
:101A20004B08D3070318D40A4C08D4077A30831222
:101A30000313EB008230EC00831603135408831267
:101A40000313EE0083160313530883120313ED00F0
:101A50000A128A11E8250A128A150030831203132C
:101A6000BB008030BC004430BD0083160313540813
:101A700083120313A1008316031353088312031365
:101A8000A0000530A2000030A3000A168A11CF255D
:101A90000A128A15831203132108A9002008A8003E
:101AA0000A168A11F6250A128A15831203132808CA
:101AB000BE002908BF002A08C0000A128A1120208F
:101AC0000A128A15831203133B0883160313D000EE
:101AD000831203133C0883160313D10083120313EC
:101AE0003D0883160313D2003B3083120313BB005F
:101AF000C730BC003930BD00831603135008831271
:101B00000313BE0083160313510883120313BF008F
:101B100083160313520883120313C0000A128A119A
:101B200020200A128A15831203133B08831603131D
:101B3000CD00831203133C0883160313CE008312D7
:101B400003133D0883160313CF004D0883120313BC
:101B5000DB00831603134E0883120313DC00831685
:101B600003134F0883120313DD000A128A15222182
:101B70000A128A15831203135C0883160313B70035
:101B8000831203135B0883160313B600A830831275
:101B90000313EB008230EC00831603133708831223
:101BA0000313EE0083160313360883120313ED00AC
:101BB0000A128A11E8250A128A15080000308316D5
:101BC0000313CD000030CE003F30CF00D730D0001F
:101BD0002330D1003C30D200831203131F08C339D5
:101BE00020389F009F148316031330083104031913
:101BF000FA2DFB2DF32DB001B101831203131E0842
:101C000083160313CB00CC014B08CC00CB014B084F
:101C1000D9004C08DA001E08CB00CC014B08D907CC
:101C20000318DA0A4C08DA074D0883120313CB00B5
:101C3000831603134E0883120313CC008316031379
:101C40004F0883120313CD000030BB008030BC006E
:101C50004430BD00831603135A0883120313A100F6
:101C600083160313590883120313A0000530A20042
:101C70000030A3000A168A11CF250A128A15831292
:101C800003132108A9002008A8000A168A11F625C6
:101C90000A128A15831203132808BE002908BF0000
:101CA0002A08C0000A128A1120200A128A158312FB
:101CB00003133B08CE003C08CF003D08D0000A16B5
:101CC0008A11AA250A128A15831203134B08831658
:101CD0000313D600831203134C0883160313D70093
:101CE000831203134D0883160313D8005008831280
:101CF0000313BB0083160313510883120313BC00A4
:101D000083160313520883120313BD0083160313B3
:101D1000560883120313BE00831603135708831259
:101D20000313BF0083160313580883120313C00064
:101D30000A128A1120200A128A15831203133B0803
:101D400083160313D300831203133C088316031373
:101D5000D400831203133D0883160313D5005308E0
:101D600083120313DB008316031354088312031337
:101D7000DC0083160313550883120313DD000A12D7
:101D80008A1522210A128A15831203135C0883160E
:101D90000313BB00831203135B0883160313BA00FB
:101DA0005E3083120313EB008230EC0083160313C2
:101DB0003B0883120313EE00831603133A088312C1
:101DC0000313ED000A128A11E8250A128A15080089
:101DD0000830831603138F000A168A1176250A121B
:101DE0008A150A168A111F260A128A150A168A11DE
:101DF0008E250A128A15EC3083120313EB00823011
:101E0000EC000A128A11E8250A128A150A168A11AC
:101E1000FE240A128A15033083160313DB005B08C5
:101E2000BF00EE3083120313EB008130EC000A1286
:101E30008A11E8250A128A154D3083160313DD0036
:101E40001930DC004F30DB00DB0B242FDC0B242FA0
:101E5000DD0B242F8B170B178B160A168A11DB2428
:101E60000A128A15F52F0000F52F93308312031301
:101E7000EB008230EC000A128A11E8250A128A155A
:101E80000A128A1116270A128A15831603133E03B3
:101E900003194B2F4C2F522F02303E06031D512F9A
:101EA000522F552FBF01BF0AF52F0330DB005B080F
:101EB000BF000330DB005B08BE000130FA070318E7
:101EC000FB0A0030FB070B118B16F52F0A168A113F
:101ED0005F250A128A15013083160313B000003003
:101EE000B1000A128A1502240A128A1501308316DB
:101EF0000313B0000030B1000A128A15EE240A1252
:101F00008A15013083160313B0000030B1000A12A5
:101F10008A15DE250A128A15013083160313B000D4
:101F20000030B1000A128A153C220A128A150130CB
:101F300083160313B0000030B1000A128A11052382
:101F40000A128A150230831603133E06031DA92FB9
:101F5000AA2FAF2F0230DB005B08BF00F52F033044
:101F6000DB005B08BF000330DB005B08BE00013014
:101F7000FA070318FB0A0030FB070B118B16F52F2D
:101F80000A128A152A200A128A15033083160313AF
:101F9000DB005B08BF000330DB005B08BE000130E4
:101FA000FA070318FB0A0030FB070B118B16F52FFD
:101FB0008E3083120313EB008130EC000A128A1179
:101FC000E8250A128A15F52F3F08003A0319352F24
:101FD000013A0319662F033A0319C02F013A031976
:101FE000332F073A0319D82FF52F04308316031324
:101FF0003F06031DFC2FFD2FE42F0A128A110C2827
:1029800064008001840A0406031900340406C12C83
:102990003F308312031397051710971017159715DB
:1029A000080083120313A0000C1ED72CD82CD42CA3
:1029B0002008990008008316031381128111073043
:1029C00081043D3083120313810008008312031336
:1029D000200821040319ED2CEE2CF02C0616F12C06
:1029E0000612080083120313200821040319F92C8E
:1029F000FA2CFC2C0716FD2C071208001C30831241
:102A00000313EB008130EC000A128A11E8250A1644
:102A10008A110800831603133D0883120313A100D3
:102A2000831603133C0883120313A00008008316C7
:102A30000313390883120313A10083160313380804
:102A400083120313A00008008316031337088312B0
:102A50000313A10083160313360883120313A00087
:102A60000800831603133B0883120313A100831687
:102A700003133A0883120313A00008008312031300
:102A800012151208FC3901389200873092052A305D
:102A90008316031392000800831603132908831278
:102AA0000313A000831603132A0883120313A10043
:102AB000831603132B0883120313A20008005D3052
:102AC00083120313EB008130EC000A168A114B26A7
:102AD0000A168A11831203133008EE002F08ED0046
:102AE0000A128A11E8250A168A11080083160313B0
:102AF0000712831603178911831603130612870121
:102B00008312031395010A168A11C8240A168A1122
:102B10000A168A113E250A168A1108008316031325
:102B200018121811831603178711831603139A01BD
:102B300020309900181383120313181383160313FC
:102B40000C128C1283120313981783160313981216
:102B500098160800831203134D084C044B04031904
:102B6000B22DB32DB52D8030CD064E08AE004F08E6
:102B7000AF005008B0004B08B1004C08B2004D083F
:102B8000B3000A128A11B2240A168A11831203139F
:102B90002E08CB002F08CC003008CD00080083128F
:102BA0000313A401A501201CD62DD72DDD2D22084D
:102BB000A4070318A50A2308A50701300310A20DD6
:102BC000A30DFF3E031DDE2D01300310A10CA00C50
:102BD000FF3E031DE52D20082104031DF02DF12DDE
:102BE000D32D2508A1002408A00008008312031398
:102BF000AD01A91FFC2DFD2D042EA809A909A80AC5
:102C00000319A90AAD01AD0A2808A0002908A100EE
:102C1000A2018E30AB002B08A3002D08AC002C08BD
:102C2000A4000A128A15A4200A168A11831203131B
:102C30002008A8002108A9002208AA00080083167D
:102C400003178914831603138615831603170914B3
:102C5000831603130615831603170915831603132A
:102C60008614831603170916831603130614831696
:102C7000031789168316031386160C178312031382
:102C80001F083F3980389F001F14831603131F123B
:102C90009F129F1708000430831603133206330473
:102CA000031D532E542E7B2E330883120313A700CB
:102CB00083160313320883120313A600831603132B
:102CC000350883120313A9008316031334088312F3
:102CD0000313A8000A168A1197270A168A1183126D
:102CE00003132708FD002608FC0083160313B40114
:102CF000B501B201B3017D0883120313B0007C0853
:102D0000AF00080083120313B01F872E882E952E64
:102D10002E08003CAE002F08031C2F0F003CAF0014
:102D20003008031C300F803CB000B31F982E992E42
:102D3000A62E3108003CB1003208031C320F003CC3
:102D4000B2003308031C330F803CB3008030B00660
:102D50008030B30633083002031DB42E32082F0230
:102D6000031DB42E31082E020318B72EB82EBA2E2A
:102D70000310BB2E03140800831203132808290430
:102D80000319C32EC42EF32EAD01AD0AD22E01308D
:102D90000310A80DA90DFF3E031DC82E0130AC0085
:102DA0002C08AD07A91FD52ED62EC72E29082B0219
:102DB000031DDC2E28082A02031CDF2EE02EE62E3F
:102DC0002808AA022908031CAB03AB020130031038
:102DD000A90CA80CFF3E031DE72E0130AD02031D18
:102DE000F22EF32ED62E2B08A9002A08A8000800E0
:102DF00083120313A501A601200821040319012F42
:102E0000022F392FA701A70A102F01300310A00DA0
:102E1000A10DFF3E031D062F0130A4002408A707C3
:102E2000A11F132F142F052F01300310A50DA60D80
:102E3000FF3E031D152F21082302031D212F20080B
:102E40002202031C242F252F2C2F2008A202210848
:102E5000031CA303A302251401300310A10CA00C32
:102E6000FF3E031D2D2F0130A702031D382F392FE0
:102E7000142F2608A1002508A0000800F601F31F62
:102E8000422F432F4A2FF209F309F20A0319F30ADA
:102E9000F601F60AF11F4D2F4E2F532FF009F109BD
:102EA000F00A0319F10A700871040319582F592FF9
:102EB000882FF501F50A672F01300310F00DF10D91
:102EC000FF3E031D5D2F0130F4007408F507F11F6C
:102ED0006A2F6B2F5C2F71087302031D712F70080E
:102EE0007202031C742F752F7B2F7008F202710879
:102EF000031CF303F30201300310F10CF00CFF3E4E
:102F0000031D7C2F0130F502031D872F882F6B2FA7
:102F1000760803198C2F8D2F922FF209F309F20AEC
:102F20000319F30A7308F1007208F0000800831215
:102F30000313AC01A71F9D2F9E2FA52FA609A7093C
:102F4000A60A0319A70AAC01AC0AA91FA82FA92F2A
:102F5000B22FA809A909A80A0319A90A0130AA00D1
:102F60002A08AC06AD01AE01260827040319B92FC3
:102F7000BA2FF12FAB01AB0AC82F01300310A60DF9
:102F8000A70DFF3E031DBE2F0130AA002A08AB0784
:102F9000A71FCB2FCC2FBD2F01300310AD0DAE0DD1
:102FA000FF3E031DCD2F27082902031DD92F260818
:102FB0002802031CDC2FDD2FE42F2608A802270897
:102FC000031CA903A9022D1401300310A70CA60CA1
:102FD000FF3E031DE52F0130AB02031DF02FF12F43
:102FE000CC2F2C080319F52FF62FFB2FAD09AE09B6
:102FF000AD0A0319AE0A2E08A7002D08A600080086
:04400E00E220FF3F6E
:00000001FF
